:10000000E84000202D560000B1B801005D56000008
:100010005D5600005D5600005D56000000000000C7
:100020000000000000000000000000002D5400004F
:100030005D56000000000000E553000009A7010024
:10004000ED550000D5410100ED550000ED550000D3
:10005000ED550000ED550000ED550000ED55000098
:10006000ED550000ED550000ED550000ED55000088
:10007000ED550000ED550000ED550000ED55000078
:10008000ED550000ED550000ED550000ED55000068
:10009000ED550000ED550000ED550000ED55000058
:1000A000ED550000ED550000ED550000ED55000048
:1000B000ED550000ED550000ED550000ED55000038
:1000C000ED550000ED550000ED550000ED55000028
:1000D000ED550000ED550000ED550000ED55000018
:1000E000ED550000ED550000ED550000ED55000008
:1000F000ED550000ED550000ED550000ED550000F8
:1001000081F0004102E000BF83F0004330B54FEAC8
:1001100041044FEA430594EA050F08BF90EA020F35
:100120001FBF54EA000C55EA020C7FEA645C7FEAC8
:10013000655C00F0E2804FEA5454D4EB5555B8BFEB
:100140006D420CDD2C4480EA020281EA030382EA5C
:10015000000083EA010180EA020281EA0303362DEE
:1001600088BF30BD11F0004F4FEA01314FF4801CC1
:100170004CEA113102D0404261EB410113F0004FD3
:100180004FEA03334CEA133302D0524263EB43038A
:1001900094EA050F00F0A780A4F10104D5F1200E28
:1001A0000DDB02FA0EFC22FA05F2801841F1000183
:1001B00003FA0EF2801843FA05F359410EE0A5F157
:1001C00020050EF1200E012A03FA0EFC28BF4CF088
:1001D000020C43FA05F3C01851EBE37101F000453E
:1001E00007D54FF0000EDCF1000C7EEB00006EEB4B
:1001F0000101B1F5801F1BD3B1F5001F0CD34908D5
:100200005FEA30004FEA3C0C04F101044FEA44522B
:1002100012F5800F80F09A80BCF1004F08BF5FEAB2
:10022000500C50F1000041EB045141EA050130BD92
:100230005FEA4C0C404141EB0101013C28BFB1F5A4
:10024000801FE9D291F0000F04BF01460020B1FAEF
:1002500081F308BF2033A3F10B03B3F120020CDAC2
:100260000C3208DD02F1140CC2F10C0201FA0CF0A0
:1002700021FA02F10CE002F11402D8BFC2F1200C05
:1002800001FA02F120FA0CFCDCBF41EA0C019040BB
:10029000E41AA2BF01EB0451294330BD6FEA040404
:1002A0001F3C1CDA0C340EDC04F11404C4F12002EF
:1002B00020FA04F001FA02F340EA030021FA04F301
:1002C00045EA030130BDC4F10C04C4F1200220FA58
:1002D00002F001FA04F340EA0300294630BD21FA96
:1002E00004F0294630BD94F0000F83F4801306BF5C
:1002F00081F480110134013D4EE77FEA645C18BF50
:100300007FEA655C29D094EA050F08BF90EA020FE6
:1003100005D054EA000C04BF1946104630BD91EADE
:10032000030F1EBF0021002030BD5FEA545C05D1E1
:100330004000494128BF41F0004130BD14F5800420
:100340003CBF01F5801130BD01F0004545F0FE4194
:1003500041F470014FF0000030BD7FEA645C1ABFC9
:10036000194610467FEA655C1CBF0B46024650EA00
:10037000013406BF52EA033591EA030F41F400212C
:1003800030BD00BF90F0000F04BF0021704730B5B2
:100390004FF4806404F132044FF000054FF0000187
:1003A00050E700BF90F0000F04BF0021704730B548
:1003B0004FF4806404F1320410F0004548BF40421D
:1003C0004FF000013EE700BF42004FEAE2014FEA72
:1003D00031014FEA02701FBF12F07F4393F07F4F4D
:1003E00081F06051704732F07F4208BF704793F050
:1003F0007F4F04BF41F40021704730B54FF4607463
:1004000001F0004521F000411CE700BF50EA010265
:1004100008BF704730B54FF000050AE050EA01020E
:1004200008BF704730B511F0004502D5404261EB7E
:1004300041014FF4806404F132045FEA915C3FF4BF
:10044000D8AE4FF003025FEADC0C18BF03325FEA5C
:10045000DC0C18BF033202EBDC02C2F1200300FA0D
:1004600003FC20FA02F001FA03FE40EA0E0021FA32
:1004700002F11444BDE600BF70B54FF0FF0C4CF420
:10048000E06C1CEA11541DBF1CEA135594EA0C0FD2
:1004900095EA0C0F00F0DEF82C4481EA030621EA0D
:1004A0004C5123EA4C5350EA013518BF52EA033548
:1004B00041F4801143F4801338D0A0FB02CE4FF0FA
:1004C0000005E1FB02E506F00042E0FB03E54FF02A
:1004D0000006E1FB03569CF0000F18BF4EF0010E22
:1004E000A4F1FF04B6F5007F64F5407404D25FEA1E
:1004F0004E0E6D4146EB060642EAC62141EA5551D1
:100500004FEAC52040EA5E504FEACE2EB4F1FD0C12
:1005100088BFBCF5E06F1ED8BEF1004F08BF5FEA90
:10052000500E50F1000041EB045170BD06F0004642
:1005300046EA010140EA020081EA0301B4EB5C04EF
:10054000C2BFD4EB0C0541EA045170BD41F48011E7
:100550004FF0000E013C00F3AB8014F1360FDEBF0C
:10056000002001F0004170BDC4F10004203C35DAE8
:100570000C341BDC04F11404C4F1200500FA05F36B
:1005800020FA04F001FA05F240EA020001F000420C
:1005900021F0004110EBD37021FA04F642EB060182
:1005A0005EEA430E08BF20EAD37070BDC4F10C04AC
:1005B000C4F1200500FA04F320FA05F001FA04F270
:1005C00040EA020001F0004110EBD37041F100015C
:1005D0005EEA430E08BF20EAD37070BDC4F1200567
:1005E00000FA05F24EEA020E20FA04F301FA05F2CF
:1005F00043EA020321FA04F001F0004121FA04F277
:1006000020EA020000EBD3705EEA430E08BF20EA46
:10061000D37070BD94F0000F0FD101F00046400080
:1006200041EB010111F4801F08BF013CF7D041EA02
:10063000060195F0000F18BF704703F00046520006
:1006400043EB030313F4801F08BF013DF7D043EAD7
:100650000603704794EA0C0F0CEA135518BF95EA8D
:100660000C0F0CD050EA410618BF52EA4306D1D114
:1006700081EA030101F000414FF0000070BD50EA33
:10068000410606BF1046194652EA430619D094EABD
:100690000C0F02D150EA013613D195EA0C0F05D1A7
:1006A00052EA03361CBF104619460AD181EA0301FB
:1006B00001F0004141F0FE4141F470014FF00000B3
:1006C00070BD41F0FE4141F4780170BD70B54FF04E
:1006D000FF0C4CF4E06C1CEA11541DBF1CEA1355CE
:1006E00094EA0C0F95EA0C0F00F0A7F8A4EB0504B0
:1006F00081EA030E52EA03354FEA013100F08880A7
:100700004FEA03334FF0805545EA131343EA12636F
:100710004FEA022245EA111545EA10654FEA002624
:100720000EF000419D4208BF964244F1FD0404F5DD
:10073000407402D25B084FEA3202B61A65EB030539
:100740005B084FEA32024FF480104FF4002CB6EBF6
:10075000020E75EB030E22BFB61A754640EA0C0076
:100760005B084FEA3202B6EB020E75EB030E22BFB6
:10077000B61A754640EA5C005B084FEA3202B6EBF7
:10078000020E75EB030E22BFB61A754640EA9C00B6
:100790005B084FEA3202B6EB020E75EB030E22BF86
:1007A000B61A754640EADC0055EA060E18D04FEA44
:1007B000051545EA16754FEA06164FEAC30343EAE4
:1007C00052734FEAC2025FEA1C1CC0D111F4801FB1
:1007D0000BD141EA00014FF000004FF0004CB6E7AA
:1007E00011F4801F04BF01430020B4F1FD0C88BF49
:1007F000BCF5E06F3FF6AFAEB5EB030C04BFB6EB54
:10080000020C5FEA500C50F1000041EB045170BD46
:100810000EF0004E4EEA113114EB5C04C2BFD4EB73
:100820000C0541EA045170BD41F480114FF0000EF7
:10083000013C90E645EA060E8DE60CEA135594EA73
:100840000C0F08BF95EA0C0F3FF43BAF94EA0C0F76
:100850000AD150EA01347FF434AF95EA0C0F7FF4EB
:1008600025AF104619462CE795EA0C0F06D152EA3F
:1008700003353FF4FDAE1046194622E750EA410623
:1008800018BF52EA43067FF4C5AE50EA41047FF434
:100890000DAF52EA43057FF4EBAE12E77BB972B9B4
:1008A0000029BEBF00204FF0004106E008BF00282D
:1008B0001CBF6FF000414FF0FF3000F0B7B9ADF151
:1008C000080C6DE904CE002909DB002B1ADB00F0CF
:1008D0004DF8DDF804E0DDE9022304B07047404242
:1008E00061EB4101002B1BDB00F040F8DDF804E078
:1008F000DDE9022304B0404261EB4101524263EB67
:1009000043037047524263EB430300F02FF8DDF8D6
:1009100004E0DDE9022304B0404261EB410170478D
:10092000524263EB430300F021F8DDF804E0DDE917
:10093000022304B0524263EB4303704753B94AB9F0
:10094000002908BF00281CBF4FF0FF314FF0FF30D7
:1009500000F06CB9ADF1080C6DE904CE00F006F8BA
:10096000DDF804E0DDE9022304B070472DE9F0472B
:10097000089E0D4604468E46002B40F082808A4237
:10098000174646D9B2FA82F24AB1C2F1200105FAFD
:1009900002F320FA01F1974041EA030E94404FEA36
:1009A0001748230CBEFBF8FCB9B208FB1CEE43EA67
:1009B0000E430CFB01F098420AD9FB180CF1FF35ED
:1009C00080F01681984240F21381ACF1020C3B4456
:1009D0001B1AA4B2B3FBF8F008FB103344EA03443B
:1009E00000FB01F1A14209D93C1900F1FF3380F06D
:1009F0000181A14240F2FE8002383C44641A40EA80
:100A00000C4000211EB1D4400023C6E90043BDE8DC
:100A1000F08702B9FFDEB2FA82F2002A4FD1CB1B77
:100A20004FEA174E1FFA87F80121B3FBFEFC250C95
:100A30000EFB1C3345EA034508FB0CF3AB4207D918
:100A40007D190CF1FF3002D2AB4200F2E780844600
:100A5000ED1AA3B2B5FBFEF00EFB105543EA0544B8
:100A600008FB00F8A04507D93C1900F1FF3302D27A
:100A7000A04500F2D7801846A4EB080440EA0C40D9
:100A8000C0E78B4208D9002E00F0AF800021C6E9F4
:100A900000050846BDE8F087B3FA83F100294BD181
:100AA000AB4202D3824200F2B780841A65EB0303A3
:100AB00001209E46002EAAD0C6E9004EA7E7C2F14B
:100AC000200C01FA02F3974020FA0CF04FEA174E7F
:100AD00021FA0CFC1843BCFBFEF1050C0EFB11CCFB
:100AE0001FFA87F845EA0C4501FB08F3AB4204FA0C
:100AF00002F409D97D1901F1FF3C80F08B80AB42F3
:100B000040F2888002393D44EB1A85B2B3FBFEF017
:100B10000EFB103345EA034500FB08F3AB4207D94F
:100B20007D1900F1FF3C71D2AB426FD902383D44D0
:100B3000EB1A40EA014178E7C1F1200C8B4022FA20
:100B40000CF71F4320FA0CF405FA01F34FEA174E95
:100B500025FA0CF51C43230CB5FBFEF91FFA87F8A8
:100B60000EFB195543EA054509FB08FAAA4502FAA6
:100B700001F200FA01F308D97D1909F1FF3047D2DB
:100B8000AA4545D9A9F102093D44A5EB0A05A4B23D
:100B9000B5FBFEF00EFB105544EA054400FB08F8D7
:100BA000A04507D93C1900F1FF352DD2A0452BD91E
:100BB00002383C4440EA0940A4EB0804A0FB028947
:100BC0004C45C6464D4619D316D05EB1B3EB0E0266
:100BD00064EB050404FA0CFCCA404CEA0202CC4067
:100BE000C6E900240021BDE8F087314630460EE713
:100BF000AC46EDE6184601E74345E6D2B8EB020EF7
:100C000069EB07050138E0E72846D3E760468FE740
:100C10008146BAE7614677E708464BE7ACF1020C3C
:100C20003D4415E702383C4426E700BF704700BF4B
:100C300073B53E4DD5F82431996811F001011FD1EB
:100C400001AA40F6034005F0EBFC044600286AD1F7
:100C5000019B9B681B7883B905F1980318461BF02C
:100C60006BF8BFF35B8F00F0050053E8002F43E8FB
:100C700000010029F9D1BFF35B8F019816F0C0F88D
:100C800001AA002141F2030005F0CAFC0446002835
:100C900049D1019B26489968082201311AF0C5FE06
:100CA000019816F0ADF8214601AA41F2010005F0C5
:100CB000B7FC0446002836D1019883685A7885F835
:100CC0003820D9789A7842EA01226A871A7985F819
:100CD0003920197ADA7942EA0122AA875A799B796E
:100CE00042EA0323EB8716F08BF8214601AA41F272
:100CF000020005F095FC0446A8B9019B0D489968CF
:100D0000402201311AF091FE95F86A30019843F0C3
:100D1000060385F86A3016F073F895F844305A06E1
:100D20000AD46FF01204204602B070BD000000200B
:100D30004000002048000020214601AA42F20300A2
:100D400005F06EFC04460028EDD1019BC24899686D
:100D5000082201311AF069FE019816F051F8214677
:100D600001AA42F2020005F05BFC04460028DAD139
:100D7000019B9B68B3F80120A5F8CC2091B221B16A
:100D8000DA78B64811461EF09BF8019816F038F84C
:100D900095F8446016F0200600F0398195F864302B
:100DA0001B0711D501AA002142F21C0005F038FCF6
:100DB00004460028B7D10198836853F8012F5B6877
:100DC000C5E92A2316F01CF895F8A0309E0623D515
:100DD0000DF1020168461BF0A8F904460028A2D1D3
:100DE000042142F2240005F0C1FB0646002800F071
:100DF0001581042108301DF0CDFBBDF800300380C3
:100E0000BDF8023043802246314642F2240005F00C
:100E100007FC0446002886D195F8A0305C062CD546
:100E2000022142F22E0005F0A1FB0446002800F04A
:100E3000F580022108301DF0ADFB6FF07B030370DD
:100E4000032343702146002242F22E0005F0E8FB06
:100E5000044600287FF467AF014601AA42F22A0047
:100E600005F0DEFB044600287FF45DAF019883683F
:100E70005B7885F8E83015F0C3FF082142F20100E5
:100E800005F074FB0446002800F0C88008210844DF
:100E90001DF080FB95F8A01011F0400F024640F2C3
:100EA000022308BF032388074CBF43F02C0043F004
:100EB0000C008B0695F8A13048BF40F0400013F0BD
:100EC000090F95F86A3018BF40F4006003F006037C
:100ED000CE0748BF40F01000062B08BF40F4C0709A
:100EE00000211BF03EF82146002242F2010005F0ED
:100EF00097FB044600287FF416AF95F84430980617
:100F00001ED4B5F8CC10D9B901AA41F2050005F0FC
:100F100087FB044600287FF406AFB5F8CC3063B9F0
:100F2000019B9B685A78997842EA0122A5F8CC2067
:100F30009A884A4811461DF0C3FF019815F060FFDA
:100F4000082140F6014005F011FB0446002865D059
:100F5000082108441DF01EFB95F8A030D907024671
:100F600071D53BA1D1E900011AF0FBFF2146002217
:100F700040F6014005F054FB044600287FF4D3AE50
:100F8000014601AA4FF6014005F04AFB044648BB62
:100F9000019815F035FF214601AA4FF6024005F0F1
:100FA0003FFB0446F0B9019B2D48996802220131AC
:100FB0001AF03BFD019815F023FF95F889305B0787
:100FC00010D501AA21464FF6034005F029FB48B988
:100FD000019B24489968012211441AF026FD0198CA
:100FE00015F00EFF07F052F9044600287FF49BAE7F
:100FF0001D491E481DF0E2FFEB79002B3FF493AE34
:1010000004211B481AF0F2FE06F000F88BE60221DC
:1010100040F66D4005F0AAFA044610B96FF03604A8
:1010200081E6022108301DF0B5FA012303704670F5
:101030002146324640F66D4005F0F2FA044600289B
:101040003FF4ACAE6FE60B484FF000518CE700BFA9
:101050009088000200800020A0000020D000002026
:101060008900002088000020E1680000380100208D
:1010700098000020108800022DE9F041D0E90BC74C
:10108000D0F828800CEB07043034A0450E461546F6
:1010900018D81B4F18A3D3E90023ACFB0701FFF7B7
:1010A0004DFCA4EB080420F07F40306012A3D3E98C
:1010B0000023A4FB0701FFF741FC20F07F402860DC
:1010C000BDE8F0810E4C0CA3D3E90023A8FB04017A
:1010D000FFF734FC20F07F4307F130003360A0FBC2
:1010E000040105A3D3E90023FFF728FC20F07F408B
:1010F0002860BDE8F08100BF8D49FD1A070000009F
:1011000000CA9A3B000000002DE9F04FB24C8FB0AE
:10111000002800F0CD8194F8D66016F0010637D192
:1011200094F87C8094F8290094F82C2027272D230C
:1011300007FB084800F0030017FB0237FF2384F881
:101140002A3012F08FFA94F8D600410708F17D0892
:1011500004EB070900F12981E05D3146C0F38010FE
:101160000BF046FC06220146054609F102001AF082
:101170005CFC2946062208F102001AF056FCE35DE9
:101180005A060AD413F00E0F40F0E680636A8BB162
:101190000C2630460FB0BDE8F08F062109F10200A1
:1011A0000AF078F8002800F02D82E35D13F00E0FAE
:1011B000ECD0D1E00DF088FE8246002800F0478296
:1011C0000DF08EFE8346002800F05A820FF09EF844
:1011D0000546002800F051824FF6FF73806FAB8503
:1011E00005F11C030B93002800F02D8205F16C0221
:1011F00005F168010AF05AF8B5F8642095F83DE069
:1012000095F8DC0095F8261195F840C0C5F830A196
:1012100022F4EF6222F0070242F4887242F00102E7
:101220000EF03F0E6EF07F0E20F0030021F0030160
:10123000A5F86420002262F3000C4FF01B1385F820
:101240003DE085F8DC0085F826116448644985F89E
:10125000C1204FF0060EC5E9132285F83F206A86AB
:101260006A636A65A5F8C820A5F8CC20A5F8E8202F
:1012700085F8EA20C5F80021A5F80421A5F8182171
:10128000C5F82021A5F8242185F82F21EB6585F8E4
:1012900040C02866A5F8C4E0C5F81C11AA6795F8F7
:1012A00072E195F89AC195F87E0095F85211A5F86B
:1012B0007C2062F3C30C62F3041E21F0070120F0CE
:1012C0001F00A5F85021A5F87021A5F89821A5F8D0
:1012D000A42185F89AC185F872E185F8521185F844
:1012E0007E000FF05FFBA5F8D6000FF061FBD5F88C
:1012F000A8313C49A5F8D8001940C5F8A8110FF04D
:101300005DFB95F8AC1160F3020185F8AC110FF0AC
:101310005BFBC4E933AB0B9B636295F8AC1195F8AA
:1013200020C0ED610301002203F0700321F0780179
:101330000B4362F3000CC5E96E22C5E96C22C5E9D6
:101340000522C5F8C02185F8AC3185F820C013F01E
:101350005DFB002840F0608194F828300121C3F340
:1013600042030DA88DF834300AF014F9002800F07B
:101370009480E35D03F00F03022B35D0012B00F0C6
:101380004F8198F801201032D200002B40F03C81B0
:1013900099F801301033DB0003F54D710A4403F571
:1013A0009A73013803FB00202AE0C0F3C0003246E4
:1013B00004F1D70112F03AFBFF2884F82A0002D08A
:1013C000304612F0F1F94946034812F065F9024837
:1013D000414612F061F9D2E6581E0020480148014A
:1013E0007F4901000000FFF699F801301033DB005F
:1013F00000FB03F303F5AA730138642202FB0030FB
:1014000094F82030A849E461002565F300033122F7
:1014100084F820302260C4E90555A1A3D3E9002354
:10142000C4E90155A0FB0101FFF788FAB4F8D49094
:10143000E0600BF0D7FA8046B9F1000F07D1E55D07
:1014400005F00F05A5F10105B5FA85F56D0994F8CC
:10145000280065F3000010F0010584F8280000F072
:101460008680DFF85892E3689049049300200225B3
:101470000CAF01930591CDE907970321CDE9020057
:1014800006942A46009043460C950BF0F9F939462C
:101490000DF0AEFD002800F0A280636A002B3FF43F
:1014A00077AE0EF0D3F80C2630460FB0BDE8F08FC3
:1014B00094F8D630DD077FF56BAE20460DF0C0FD09
:1014C00084420CD07A4A7B497B484FF4E46318F09D
:1014D00092FC404080F311884FF0030002DF94F843
:1014E0002830D8070DAD0ED502220D920321734B83
:1014F0000095012200200BF02FFA29460DF078FD0F
:10150000002840F0C280022203216C4B009500208D
:101510000D920BF021FA29460DF06AFD002840F0EB
:10152000988067480DF0C8FD00287ED165480DF011
:1015300093FD84420CD05E4A5E495F4840F242739C
:1015400018F059FC404080F311884FF0030002DF8F
:10155000636A0BB10EF07AF894F8D63000266FF378
:101560000003304684F8D6300FB0BDE8F08F5648FF
:10157000E268564BDFF844E10694A9FB000191278D
:1015800007FB091102F247171F600492474A0993AB
:101590004FF002094FF6FF7C05920CAF40A3D3E950
:1015A0000023CDE907E70295CDF83090CDF80CC0C7
:1015B000FFF7C4F94A46CDE90050434628460321C7
:1015C0000BF008F939460DF013FD00287FF465AFE4
:1015D00094F8D63043F0010384F8D630D9E53C497D
:1015E00005914AF2D8320092CDE90797CDE9030080
:1015F000CDE9010006944346012203210C950BF02E
:101600003FF9DFE71226C4E5062B3FF4C1AE4FF4E5
:10161000DA734FF41B72C4E60EF018F80326B8E52F
:101620004FF4F2734FF47F72BBE6214A29492248F6
:1016300040F23F7318F0DFFB404080F311884FF019
:10164000030002DF72E705F17000A867CEE5072608
:101650009FE51C480DF000FD84423FF499AD40F237
:101660003973134A1349144818F0C5FB404080F3FE
:1016700011884FF0030002DF8AE558460DF036FC72
:1016800050460DF027FC072683E50E480DF0E4FCDC
:1016900084423FF47DAD40F22B73E2E7AFF300806C
:1016A0008D49FD1A0700000000CA9A3BBDF30000F7
:1016B00024FF010014000200DCFC0100E5EF000043
:1016C000741E0020581E0020002AE784381F0020C6
:1016D000C9F500000CFE01002DE9F04F044690F81A
:1016E000E97090F8E80087428DB00D4616460ED09E
:1016F000C01B00F0030002281BD094F82D2194F8A1
:101700002C319A4230D100200DB0BDE8F08F94F812
:10171000523113F00108F0D194F8051194F8042126
:101720008A4200F09483B81E012384F8E90084F80B
:10173000EA3094F8983194F899219A4206D094F8B6
:101740009A2102F00601042900F0C58394F8EA709A
:101750007B1E052B00F26D83DFE813F05C000403B1
:1017600080026B032E03A901294809F049FD58B3F3
:1017700094F82C3184F82D310379022243F00303CD
:1017800042710371C271D4F8B03194F82E21027203
:101790002BB394F85221910721D494F8AB21D207AE
:1017A0001DD4D4F8BC21934204BF1A68C4F8BC21EC
:1017B000D4F8B421B2B91A68026018600368C4E9A9
:1017C0006D000BB9C4F8C001B4F8CC0000289AD160
:1017D000B4F8C630012B0ED9A4F8CC3093E7D4F876
:1017E000B42172B1D4F8B8311A6802601860036885
:1017F000C4F8B801E5E70133A4F8CC300DB0BDE87A
:10180000F08F0360C4E96C00C4F8B801D9E700BFE9
:10181000A4210020DFF840A4DAF80030002B00F00B
:101820000285B4F83680628E94F806319044B04454
:1018300013F003031FFA88F840F0EC83B4F8EC903F
:10184000A8EB09021FFA82FB12043FF556AF94F889
:10185000701194F8712194F8040184F805018A420A
:1018600094F8E80084F8E90009D094F8722102F0B5
:101870000702052A04BF84F87111A4F8CC30DAF805
:101880000030D4F800719C4204BF0023CAF8003035
:10189000002F00F099853868002800F09585B4F88D
:1018A0000831E28D4168B4F80AC1C4F800119342CE
:1018B00000F0DB86B4F80CE1A28DFA800E21002244
:1018C000FB83A7F820C0A7F822E039713A773946A0
:1018D0000DF012FB0DF01AFB2368002B09DAD4E996
:1018E000011223F000438A422CBFA9186918236013
:1018F000CD1AE38DB4F8087113FB0BF39BB2B3FB65
:10190000F7F117FB01F292B293421FFA81FA80F0CD
:101910004985D31AC44840F2E24202FB03F3A3FB19
:101920000001BFA3D3E90023FFF708F820F07F40B0
:101930000544628E94F93D30A9EB0808D044324446
:10194000904440F2E249002BA4F8328009FB07F7EB
:10195000C0F24A85B54AB649B64840F6611318F058
:101960004AFA404080F311884FF0030002DF4FF045
:1019700000083E46B4F80C21B4F80A11AE4BAF484B
:10198000218642F2107C0CFB02723B443844B3FBCC
:10199000F7F301F1060C013AB2FBF7F2B0FBF7F7EF
:1019A00098B2A4F8C6206045B4F80821A4F8D20083
:1019B000A4F8CA70E28502DD401A063880B294F8B5
:1019C0000631A4F8CE005B0744BF0023A4F8C8305A
:1019D0000221012014F092FF002202218146012001
:1019E00009F0B2FC96494FF4E472204609F03EFC3F
:1019F000C21C5FFA82FA934B0094524601210020E8
:101A00000AF0AAFF30F002030CD0884A8E498948B8
:101A10004FF4196318F0EFF9404080F311884FF04C
:101A2000030002DF804BA6FB036730467CA3D3E9AB
:101A300000233946FEF782FF844AE368049320F0CE
:101A40007F4BABFB0223072000FB0B33B01A67EB85
:101A50000301089406944FF47A72002400237C4F0B
:101A60007C4E079705960394FEF768FF2B46CDE959
:101A700001B0CDF800802046524601210AF000FF57
:101A800030F002030CD0694A6F496A4840F6AA1345
:101A900018F0B1F9404080F311884FF0030002DFE5
:101AA000B9F1000F40F0FC856FF047002CE6E28EA4
:101AB000638E94F8EC501A443244EF0796B2AB466A
:101AC00000F11383B4F8EE20B61A37043FF515AED3
:101AD00094F8DC2094F8648094F865A094F8E810F9
:101AE000B4F8627084F8E910D60708F007080AF025
:101AF000070A40F1DE85D4F81C21100540F1D98594
:101B0000B4F8D890B9F5296F28BF4FF42969B9F511
:101B1000A47F4FF4296338BF4FF4A4790B9315F0D9
:101B20001C0F40F03986B4F8606015F0E00F0CD05F
:101B300094F8652094F85E00690961F3020284F864
:101B400065200B9A0EF064F8074694F8AC2194F8DF
:101B50006410D4F80051C2F3C00262F3C30184F8E8
:101B60006410002D00F0FE862868002800F0FA8638
:101B7000426894F86430C4F800211BF0020F40F072
:101B80009D8794F8652003F00703984502F007024B
:101B900001F06580A18DE9804FF0120C00212977BA
:101BA0006B77AA7785F804C029460DF0A5F9D4F81B
:101BB0000051002D00F0E8862868002800F0E48637
:101BC000B4F860304268C4F80021B34209D34B45F1
:101BD00007D8B4F86230BB4203D30B9A934241F268
:101BE0005280A4F86060A4F862702B7FA28DEA8016
:101BF00043F003030221092229712B776A77B4F895
:101C00005E30B4F85C202B841523AA84EB77294638
:101C10006F84EE840DF070F90DF078F96DE500BF7A
:101C20008D49FD1A0700000000CA9A3B20000200FF
:101C30003CFD0100DCFC01007FC3C901FF596202C9
:101C4000581F002041FF0000580102008D49FD1A75
:101C5000E9FE0000812F01002021002094F8EC30E3
:101C600013F0030500F0848294F93D30002BBFF699
:101C700044AD012D7FF441ADBB4809F0C1FA0546E2
:101C800000283FF43AAD03790D2243F00303042703
:101C900000F1080603714271C7710C21304612F041
:101CA000B5FC3146082204F1F60019F0BEFE3A46B2
:101CB00005F1100104F19C0019F0B7FED4F8B03121
:101CC000002B00F0E38694F85221900700F1DE86A5
:101CD00094F8AB21D10700F1D986D4F8BC21934206
:101CE00004BF1A68C4F8BC21D4F8B421002A01F05A
:101CF0002581D4F8B8311A682A601D602B68C4F8B1
:101D0000B851002B01F0CE800DF024F905460028D3
:101D10003FF4F3AC2B7FA28DEA8043F0030302264D
:101D2000172103222B776977EA7704F255110822ED
:101D30002E7105F1200019F078FE94F8533185F8E2
:101D4000283094F8543185F82930286829460DF058
:101D5000D3F80DF0DBF894F8EC3066F3010384F867
:101D6000EC30CAE4E28E618E94F8EC300A443244DE
:101D7000DF0796B200F10081B4F8F220B61A3504FC
:101D80003FF5BBAC94F8E83084F8E93004F138054D
:101D9000052204F1ED01284619F047FE28460521E9
:101DA00009F0F8FB94F83D30012260F3050384F854
:101DB0003D3084F8C421A0E46B4809F021FA0028E2
:101DC0003FF49BAC94F8E83084F8E93001230279C1
:101DD0004371D4F8B03142F0030212210271C17193
:101DE000002B00F0D48294F85221910700F1CF82A9
:101DF00094F8AB21D20700F1CA82D4F8BC219342F7
:101E000004BF1A68C4F8BC21D4F8B421002A01F038
:101E10006180D4F8B8311A68026018600368C4F8A9
:101E2000B801002B00F0B484B4F8CA30A4F8CC3068
:101E300063E44E4A4E494F4840F2BF3317F0DBFF90
:101E4000404080F311884FF0030002DF55E494F81E
:101E5000192194F818C1624554D194F8252194F8B9
:101E600024C1624500F01283A2EB0C02D1077FF57A
:101E700044AC94F82631DA0740F148879A0740F1DC
:101E800032870DF067F8014600B394F8243184F8E6
:101E90002531037FA28DC28043F003030B7702201C
:101EA00006220C2308714A77CB7794F82701B4F8FF
:101EB0002821B4F82A31A1F8233081F82000A1F8B4
:101EC000212008680DF018F80DF020F894F8E800CB
:101ED00094F8E9700CE402F00701062901F2AE81E2
:101EE00001A050F821F000BFBD2200004D170000F6
:101EF0004D1700004D1700002F2200002F22000078
:101F00004D170000A2EB0C02D3077FF5F6AB94F857
:101F1000DC1011F0010700F0E0830DF01BF807461C
:101F20000028D3D094F8183184F81931037FA28D9A
:101F3000C28043F003030922022041463B773871F7
:101F40007A77FA7707F12000082219F099FDD4F882
:101F5000203187F82030C3F307221B0C87F821209B
:101F600087F822303946ACE7A42100202000020087
:101F70003CFD0100DCFC0100CE4809F041F90546BA
:101F800000283FF4BAAB238E027994F8EC10334466
:101F90000633A4F8F2306FF30001012342F003028C
:101FA000082084F8EC102A716871EB71052204F1A5
:101FB000ED01281819F039FDD4F8B031B4F8F22049
:101FC000A5F80D20002B00F0C88094F8522191074D
:101FD00000F1C38094F8AB21D20700F1BE80D4F8A1
:101FE000BC21934204BF1A68C4F8BC21D4F8B421C0
:101FF000002A00F08287D4F8B8311A682A601D6080
:102000002B68C4F8B851002B7FF477ABC4F8C051EB
:10201000FFF773BB01200CF07FFF064600283FF45A
:102020006CABA44809F0ECF8054600283FF465AB1A
:102030000CF090FF238E326894F806014344063377
:1020400099B2D4F8003153602A79C4F800616FF373
:1020500001000C2384F80601A4F8EC1042F00302FE
:102060006B71D4F81031D4F8B001934E2A7100226C
:10207000EA71A6FB032394F81461B4F808212E72C8
:10208000C3F38F23B4F80A61A5F80B20B4F80C2130
:10209000A5F80F20A5F80D60A5F81110A5F80930D6
:1020A000002800F00C8394F852319E0700F107835A
:1020B00094F8AB31D90700F10283D4F8BC319842CF
:1020C00004BF0368C4F8BC31D4F8B431002B00F06D
:1020D0001F87D4F8B8311A682A601D602868C4F8D0
:1020E000B85100287FF409AB90E702200CF014FFF0
:1020F000804600283FF401AB6E4809F081F80546A0
:1021000000283FF4FAAA94F8EC306FF30003C3F30D
:10211000421242EA930212F0070784F8EC30DBB275
:1021200040F0C28594F8E820A4F8EE70980784F88F
:10213000E92000F17A863B46394605226A712F7202
:102140002A796B72D4F8B031698142F00302182108
:102150002A71E971002B7FF438AFD4F8B421002A3A
:102160007FF449AF2B60C4E96C55C4F8B8514AE715
:10217000504809F045F8064600283FF4BEAA94F9F5
:102180003D30002B00F1040880F2198494F87E3071
:102190001D0700F1088694F8ED50002D00F0A18491
:1021A000037994F8DC2043F003030371D00740F176
:1021B0002886D4F81C31590740F1238611220323C5
:1021C0007572F27133727771D4F8B031002284F8ED
:1021D000ED20002B00F0CF8494F85221920700F1FB
:1021E000CA8494F8AB21D70700F1C584D4F8BC2188
:1021F000934204BF1A68C4F8BC21D4F8B421002A61
:1022000000F0FD86D4F8B8311A6832601E60C4F858
:10221000B8613368002B00F01E8594F8E83084F82C
:10222000E930FFF76ABACAF80040FFF7FABA02F0DD
:102230000702B4F89CC1B4F8A011B4F89E91B4F8A8
:10224000A281A4F85EC0042AA4F8621000F0B3844E
:1022500094F89A31062262F3020384F89A31D4F892
:102260000071002F00F093843868002800F08F84FC
:102270003B7F4268B4F82CE0C4F8002143F003032C
:1022800002223B774FF0090A1523A7F806E0A7F8CA
:1022900020C079843A71FB773946A7F82490A7F8D3
:1022A000268087F81DA00CF027FE0CF02FFEFFF70C
:1022B0004DBA00BFA42100205917B7D1BE4808F07D
:1022C0009FFF00283FF442AA94F89A21B4F89E1187
:1022D000B4F8A231A4F8D6100127A4F8D83067F3D7
:1022E000020284F89A2109270279477194F8DC7078
:1022F000D4F81CE1818142F0030202711B224FF0ED
:10230000140C00210272FA0780F807C0417240F1F4
:10231000B9831EF4006F00F0B583B3F5296F28BFB1
:102320004FF42963B3F5A47F38BF4FF4A4734FF47F
:102330002961D4F8B0214181C381002A00F034839F
:1023400094F852319B0700F12F8394F8AB31DF07EB
:1023500000F12A83D4F8BC319A4204BF1368C4F850
:10236000BC31D4F8B431002B00F0FF85D4F8B8317B
:102370001A68026018600268C4F8B801002A00F008
:102380004685B4F8CA30A4F8CC30FFF7DFB9D4F8EA
:10239000B421002A7FF43DAD0360C4E96C00C4F8A9
:1023A000B8013EE507FB113340F2E24283489BB29D
:1023B00002FB03F3A3FB00017DA3D3E90023FEF797
:1023C000BDFA2D1AFFF7B5BA7D4A7E497E4840F620
:1023D000EC0317F010FD404080F311884FF003002C
:1023E00002DF3868FFF75BBAE26C636C734E03FB85
:1023F0001B23E36412F04AFB804694F8DC00C0F330
:10240000820012F045FB08EB000307FB03F36F4863
:10241000E26C94F8141103F5742303F23F23A0FB3C
:1024200003034FEA934B0BFB0AF07B080244963BF5
:102430009A4228BF1A4609FB01FC4FF0000EC4E97E
:102440001232A0FB06015AA3D3E90023C4F854C0FA
:10245000C4F8E4E0C4F844B0FEF770FAD4F81031E0
:1024600084465B48A0FB0330800A09FB00F0A0FB18
:1024700006014FA3D3E90023A5EB0C05FEF75EFA96
:10248000A7EB0B0620F07F48FFF774BA94F871C1F0
:1024900094F87021944500F08F81DFF838A1DAF8C4
:1024A0000020002A00F0E78494427FF426A994F8E3
:1024B000722102F00702052A00F2BD860FF2040C19
:1024C0005CF822F0D92500002D250000DD24000055
:1024D000F1160000F1160000F11600009B073FF511
:1024E0000CA90CF037FD014600283FF4EFAC037F48
:1024F00094F87221032060F30202034384F87221EE
:10250000A08D0B77022718230F714B77B4F8742135
:10251000B4F87631C880B4F878010A84B4F87A2126
:102520004B840F238884CA84CB77CAE494F87371F0
:10253000002F40F0358594F93D30002BC0F27485B2
:1025400094F8723194F87C01C4F81071052262F39A
:102550000203012284F8723184F81421002800F06B
:102560003286B4F87431B3FBF0F3134413FB00F379
:102570009BB294F8722194F80601A4F80831C2F3D2
:10258000C0039B0020F0070243F002031343B4F89A
:102590007801B4F87A2184F80631013984F80511FC
:1025A000A4F80A01A4F80C21FFF7A7B8AFF3008044
:1025B0008D49FD1A07000000A421002000CA9A3BA3
:1025C0002000020044010200DCFC010083DE1B430A
:1025D0005917B7D120210020E048E78EB4F83280A7
:1025E00008F00EFE014600283FF470AC94F872012A
:1025F0000A7907EB0803042767F3020042F003029D
:10260000182784F872010A714F71B4F87471B4F824
:102610007601B4F878210F813344B4F87A71488197
:102620008A810F200022A1F811304FF0FF33CF81B3
:10263000C8714B758B75CB750B764B768B76CB76DD
:102640000B774B778B7720460A74CA740A750DF0A6
:1026500047FBB4F8CA3094F8E80094F8E970CAF877
:102660000040A4F8CC30FFF743B8228E62457FF4D7
:1026700021A940F2E242B4F80CE1B4F8C61002FB22
:1026800003FA42F2107202FB0EA2013AB2FBFAF216
:1026900092B291427FF410A903233B71FFF717B95F
:1026A00001221046022108F04FFE6FF04700FFF7AD
:1026B0002BB84FF4A479CDF82C90FFF730BAD4F8AA
:1026C000B431002B7FF405AD2860C4E96C55C4F823
:1026D000B85100287FF411A898E4A04808F090FDB4
:1026E000804600283FF4F2AB94F819319C4AC4F8B4
:1026F0001C21013B092284F81931427194F93D20D3
:102700000379002AACBF08220E2243F00303C271F2
:10271000082203713946104419F0B2F9D4F81C317B
:1027200088F80830C3F307221B0C88F8092088F8C2
:102730000A30D4F8B031002B00F0B48194F8522163
:10274000970700F1AF8194F8AB21D00700F1AA817F
:10275000D4F8BC21934204BF1A68C4F8BC21D4F851
:10276000B421002A00F00984D4F8B8311A68C8F8F6
:102770000020C3F80080D8F80030C4F8B881002BDE
:1027800000F09483B4F8CA30A4F8CC30FFF79EBBB5
:10279000C4F8C001FFF748BB94F8642094F85C00CB
:1027A000C5F3820161F3020284F864204A460DF009
:1027B0002FFA0646FFF7B9B994F8981194F89931B1
:1027C0008B4200F0038294F89A3103F00702062A44
:1027D00000F222850FF2040C5CF822F0832800003E
:1027E000F1160000F1160000F1160000F9270000B4
:1027F000F9270000F1160000B4F89C21A4F85E202F
:1028000003F00702B4F8A001B4F89E91B4F8A281D5
:10281000A4F86200042A00F0E883062262F30203AF
:1028200084F89A31D4F80071002F00F08F83386853
:10283000002800F08B833B7F4268B4F82CC0C4F8BA
:10284000002143F003033B77022209237B773A718F
:10285000B4F85E10B4F862207A841523A7F806C095
:102860003984FB773946A7F82490A7F826800CF026
:1028700043FB0CF04BFB94F8E80094F8E970FEF78A
:1028800037BF364808F0BCFC014600283FF41EABB9
:1028900094F89A21B4F89E01B4F8A231A4F8D600B5
:1028A0000127A4F8D83067F30202092784F89A2197
:1028B0000A794F7194F8DC70888142F00302142089
:1028C0004FF0000C0A71FF07D4F81C21C8714FF0BB
:1028D0001B0081F809C0087240F19883100540F18F
:1028E000ED83B3F5296F28BF4FF42963B3F5A47FB7
:1028F00038BF4FF4A4734FF42962D4F8B001CB81F0
:10290000B2F5A47F38BF4FF4A4724A81002800F0CA
:102910000A8394F852319B0700F1058394F8AB3198
:10292000DF0700F10083D4F8BC31984204BF03688C
:10293000C4F8BC31D4F8B431002B00F05F84D4F873
:10294000B8311A680A601960C4F8B8110B68002B16
:102950007FF418AFC4F8C01114E700BFA421002011
:102960007F490100CC4ACD49CD4840F6656317F058
:1029700042FA404080F311884FF0030002DF2868DC
:1029800094F8ECB0FFF7F4B8C34AC449C44840F621
:10299000916317F030FA404080F311884FF0030044
:1029A00002DF2868FFF70CB9D4F8B431002B7FF4AC
:1029B000DDAC0260C4E96C00C4F8B801DEE404F1E7
:1029C0007F073B462A4604F1EE0104F25D1013F046
:1029D000F5F93946102204F1A00019F026F8082272
:1029E00004F1980104F1B90019F01FF894F8970068
:1029F00094F8B82094F87E3084F88F5043F00803A0
:102A000065F3000042F0010284F8970084F87E30FC
:102A100084F8905084F8915084F8925084F8935040
:102A200084F8945084F8955084F89650C4F8B050C7
:102A30004146C4F8B45084F8B82020460DF01EFB7F
:102A4000D4F8B031002B41D094F8522192073DD4F4
:102A500094F8AB21D70739D4D4F8BC21934204BFF2
:102A60001A68C4F8BC21D4F8B421002A00F090827E
:102A7000D4F8B8311A6832601E603368C4F8B8619F
:102A8000FFF7C8BB4FF4A473194652E4D4F8B4213D
:102A9000002A7FF42EA92B60C4E96C55C4F8B85104
:102AA000FFF72FB9D4F8B421002A7FF45DAEC8F83F
:102AB0000030C4E96C88C4F8B88160E694F86520F9
:102AC00003F0070302F00702FFF764B8D4F8B4215B
:102AD000002ACDD13360C4E96C66C4F8B861FFF751
:102AE00099BB04F17F073B462A4604F1EE0104F24C
:102AF0005D1013F063F93946102204F1A00018F0BC
:102B000094FF082204F1980104F1B90018F08DFF38
:102B100094F8972094F8B81094F87E3084F88F5089
:102B200042F0010265F3000143F00803012084F83C
:102B3000972084F8B81084F87E3084F8905084F898
:102B4000915084F8925084F8935084F8945084F80B
:102B5000955084F89650C4F8B050C4F8B450327907
:102B60007071D4F8B03142F0030205213271F17175
:102B7000002B7FF431ABD4F8B421002A7FF442ABB0
:102B80003360C4E96C66C4F8B861FFF742BB424ADF
:102B90004249434840F6355317F02DF9404080F341
:102BA00011884FF0030002DF3868B4F85EC0B4F853
:102BB0006210FFF75DBBB4F8A421002A40F07981D0
:102BC00084F89931A4F8CC20FFF749BB94F8A831D8
:102BD00094F8A9219A423EF490AD94F8AA2102F00B
:102BE0000301032900F0778200297EF486AD2D4889
:102BF00008F006FB014600283FF468A994F8AA31C2
:102C000094F8AC2194F8AB71012060F30103C3F395
:102C1000820060F30202C3F3421060F30612C7F3AE
:102C20004007087984F8AA3167F3C30284F8AC211D
:102C3000C3F3820C40F00300C3F3421303271622B0
:102C40000871CA7181F808C04B724F71002220468A
:102C50000DF046F896E5C4F8C061FFF7DEBA92457C
:102C60007EF498AF03232B7129460CF045F9D4F874
:102C70000051002D00F071822868002800F06D825C
:102C80004368C4F8003103232B7129460CF034F952
:102C90000CF03CF9FEF731BD2000020044010200B7
:102CA000DCFC0100A4210020238E33440633A4F869
:102CB000EE300CF04FF9D8F80030D4F800215A600B
:102CC000C4F800810CF046F90368D4F800215A607A
:102CD00094F8EC30B4F8EE10C4F80001C3F38207A6
:102CE0005B09FFF72ABA40F65433CA4ACA49CB48AF
:102CF00017F081F8404080F311884FF0030002DFA5
:102D000094F8E80094F8E970FEF7F2BCC44808F0C3
:102D100077FA00283FF4DAA894F8252194F82631B0
:102D2000013A84F82521027943F00103062184F851
:102D3000263142F003024171D4F8B03102710B2107
:102D40006FF00E020C270172427205214FF0FF3224
:102D5000C7718172C2720273002B00F0C38094F8B5
:102D60005221970700F1BE8094F8AB21D10700F102
:102D7000B980D4F8BC21934204BF1A68C4F8BC21BE
:102D8000D4F8B421002A00F01882D4F8B8311A68B7
:102D900002601860C4F8B8010368002B7FF4F2AC3D
:102DA000C4F8C001EEE4414620460DF067F9D4F8BE
:102DB000B03183B394F8522195072CD494F8AB2109
:102DC000D00728D4D4F8BC21934204BF1A68C4F8B1
:102DD000BC21D4F8B421002A00F07781D4F8B831AE
:102DE0001A6832601E60C4F8B8613368002B00F0C6
:102DF0008C8094F8523123F0030384F85231FFF7AA
:102E00000CBA0D233572F3710227FFF7DCB9C4F851
:102E1000C001FFF7B6BAD4F8B421002ADED133607E
:102E2000C4E96C66C4F8B861DFE70CF093F81223CC
:102E3000A28D88F81C7088F8043094F86430D8F8B3
:102E40000000A8F80620C3F3020388F81D3094F8A8
:102E50006530C3F3020388F81E3041460CF04CF88D
:102E60000CF054F894F8EC30B4F8EE10C3F3820789
:102E70005B09FFF762B994F8722102F00702052A94
:102E800000F2D98101A050F822F000BFD92500003E
:102E90002D250000DD240000FB160000FB160000BD
:102EA000FB160000C4F8C051FEF72EBFC4F8C08165
:102EB00068E494F89A01B4F8A671A4F89E2100235E
:102EC00063F3020084F89A01A4F8A431A4F8A27173
:102ED000FFF7C5B91A68026018600368C4E96D009D
:102EE000FEF79FBFD4F8B421002A7FF44EAF0360F1
:102EF000C4E96C00C4F8B8014EE71A682A601D6086
:102F00002B68C4E96D55FFF77EB8C4F8C06170E75F
:102F100003682B6005602868C4E96D5500287EF4BD
:102F2000ECABFFF773B8D4F8B431002B7FF407ADE6
:102F30000860C4E96C11C4F8B81107E51A682A6082
:102F40001D602B68C4E96D55FEF7DBBE314A35497B
:102F5000324840F6355316F04EFF404080F311885A
:102F60004FF0030002DF386865E413680360106007
:102F70000268C4E96D00FFF701BA1A68C8F80020BA
:102F8000C3F80080D8F80030C4E96D88FFF7F7BBBC
:102F90001A6832601E603368C4E96D66FFF73AB99B
:102FA0001F4808F02DF9014600283EF48FAF037941
:102FB00043F003030B71112003220F23C8714A71E0
:102FC0000B7294F873314B72204600220CF088FE8D
:102FD00094F8703184F87131002394F8E80094F883
:102FE000E970CAF80030FEF783BBB4F8A421002AC8
:102FF00040F0C28084F89911A4F8CC2012E41A6839
:1030000032601E60C4E96D66FFF703B94FF4A47324
:103010001A4672E4200002003CFD0100DCFC0100C5
:10302000A4210020440102008C4808F0E9F8014680
:1030300000283EF44BAF0379182243F003030371D9
:103040004271B4F87421B4F87631B4F878010A8189
:10305000B4F87A214B8110238881CA81CB7194F80E
:103060007C310B74B4F87E31B4F88001B4F882215D
:10307000A1F81130B4F88431A1F81300B4F8860136
:10308000A1F81520B4F88821A1F81730B4F88A31D6
:10309000A1F81D30A1F81900A1F81B2020463A46DE
:1030A0000CF01EFE94F87031CAF8007094F8E80035
:1030B00094F8E97084F87131FEF71ABBD2054FF429
:1030C000A47340F18D80A82217E41A6832601E6054
:1030D000C4E96D6689E6110784F8A931C2F3820359
:1030E00061D594F8AA31022262F3840384F8AA31EC
:1030F00094F8AA3158064FEA53124CD5022262F3D3
:10310000471384F8AA3194F8AA2194F864C094F87B
:10311000650094F8AB3100F00700C2F382010CF0B7
:10312000070CC3F380038C4508BF00215B00B0EBA4
:10313000521F43F001034FEA521208BF002243EA34
:103140004213B81E43EA8103062284F8E90084F89A
:10315000EC3084F8EA20FEF7F9BA414A4149424886
:1031600040F6746316F047FE404080F311884FF03C
:10317000030002DF286883E5002161F30203A4F85D
:103180009E21B4F8A62184F89A31A4F8A411A4F8D9
:10319000A221FFF747BBD10719D5012262F34713DC
:1031A00084F8AA31AFE7DA071DD594F8AA310122D5
:1031B00062F3840384F8AA319AE71A6802601860FF
:1031C000C4E96D00E8E5B4F87631FFF7D2B912F042
:1031D000040218BF042262F3471384F8AA3192E76D
:1031E0001A46FFF78ABB13F004030ED094F8AA31F5
:1031F000042262F3840384F8AA3179E703680B6040
:103200000160C4E96D11FFF7A1BB94F8AA2163F333
:10321000840284F8AA216BE7114A1449124840F647
:103220005D5316F0E8FD404080F311884FF0030035
:1032300002DFFEF74BBE40F6614356E5084A0B49F4
:10324000094840F65D5316F0D6FD404080F31188E2
:103250004FF0030002DFFEF779BA00BFA42100207F
:103260002000020044010200DCFC01003CFD0100E2
:103270002DE9F04F9C4693B05CF80C6B1C4613682C
:1032800086460D4660462E31174604F1080A032291
:10329000D3F80090CDF828E004F11C0818F0C5FB25
:1032A00005F12A010422504618F0BFFB05F13A014E
:1032B0000522404618F0B9FB4046052108F06AF99E
:1032C00094F8213000F03F0060F30503012884F8F2
:1032D00021300AD995F83F3003F01F02053AC3F3B5
:1032E00004010B2A84F8221002D913B0BDE8F08F34
:1032F0003A6896F8DC1000209060B5F83480A4F8A5
:10330000128095F8362095F837005B0942EA0022D2
:1033100063F38401A2826B8E86F8DC10ADF8303046
:1033200011F0B4FB034696F8DC000B93C0F3820067
:1033300011F0AEFB0B9BDFF838C395F83110A28A71
:1033400040F2E24B1FFA88F80BFB08F8184408FB20
:1033500000F000F5742000F23F20ACFB00C04FEA03
:10336000580C800C0BFB01F1ACF1960CA062C4F878
:103370002CC0E163298FB44BADF8361042F2107CBB
:1033800089B20CFB0181B148434402F1060C0139BA
:10339000B3FBF8F3B1FBF8F1A6F8C61099B261459A
:1033A0004044A6F8D210B0FBF8F0A6F8CA0002DD3F
:1033B000891A063989B2A6F8CE100422514606F1C0
:1033C000E00018F032FB2B7F05F11E0B5946C3F3CA
:1033D0008013062210A88DF83C3018F026FB2B7FB6
:1033E0004FF48072AA8399F82A0097F812A0C3F3C9
:1033F00040128DF838200B9210F000FE0622014694
:10340000002840F0EF8005F12B0018F039FBBAF1ED
:10341000FF0F00F0F1805946504605F11F0210F0F1
:1034200059F8AB7F023310A9AB77062205F12500CE
:1034300018F0FBFA96F8DC30618AA28AAA86C3F3F8
:10344000820385F83830BDF836306986EB86304621
:103450000CF068FF00232082E88084F8A5300A98E9
:1034600029467D680BF048FD238AEB8011232B71E0
:103470000B9B2868002B00F0CF8094F809E0237A9A
:1034800094F80BC0A17A94F8212041EA0C2143EA78
:103490000E234B4042F040020121638484F8212036
:1034A000297729460BF028FD0BF030FD94F84900F0
:1034B000012100F0070011F003FA654A0025824659
:1034C000312300F25240A0FB02013360C6E90155EE
:1034D0005BA3D3E90023FDF731FAA36ABDF83010EE
:1034E000FC6840F2E24E20F07F40A4F5AE7C2A4614
:1034F0000EFB01E4F060022101206444A8EB030804
:1035000007F022FF48460CF03DFA821C514BCDF8E3
:103510000090D2B22846012109F01EFA0128A4EB3E
:103520000A0400F0858099F82830DB0778D430460B
:103530000CF0F8FEDFF818B1A8FB0B8940A3D3E923
:103540000023054649464046FDF7F8F9424A0696EB
:1035500020F07F4AAAFB0223072101FB0A334FF424
:10356000A071BF6808913D4907913D490591B8EBAD
:10357000020069EB0301F368049300264FF47A72AA
:1035800000230396FDF7DAF92DA3D3E9002384463F
:10359000A4FB0B01CDE901ACFDF7D0F9033520F018
:1035A0007F40EDB2313F3B4600902A463046012134
:1035B00009F066F930F002030CD02A4A2A492B4858
:1035C00040F2411316F017FC404080F311884FF091
:1035D000030002DF01221046022107F0B5FE13B0FE
:1035E000BDE8F08F05F1240105F12B0018F01DFA5C
:1035F000BAF1FF0F7FF40FAF0622002105F125007D
:1036000018F03EFA9DF83C30AB7710A9062205F180
:103610001F0018F00AFA0DE79DF838302B7740E7C5
:103620000023012200931846114609F095F97EE720
:103630000BF01EFD81453FF476AF0FF07DFC72E785
:103640008D49FD1A070000007FC3C901FF596202BE
:1036500000CA9A3B652F01008D49FD1A092F010010
:10366000812F01001402020058010200DCFC01005D
:1036700083DE1B4308B5074815F062F830B14FF4FC
:10368000206116F097FA00EAE07008BD6FF01500AF
:10369000FBE700BF5809020008B5074815F050F8CD
:1036A00030B14FF4907116F085FA00EAE07008BD71
:1036B0006FF01500FBE700BF5809020008B5054888
:1036C00015F03EF8044B002818600CBF6FF0150091
:1036D000002008BD5F090200E8130020F0B5144E79
:1036E000144684460F460FCE8BB003AD0FC596E847
:1036F000070085E807000AAB03EB84030D4A53F883
:103700001C5C07213B4601A805FB0CF502F060F9A3
:10371000621E01AB03AC13F8011B54F822003039D0
:10372000013A00FB0155F6D228460BB0F0BD00BFB0
:1037300020F601006609020070B5064688B088B917
:10374000094D0A4806F0C2F816F005FF0FCD03AC8C
:103750000FC42B682360064900963346032203A852
:1037600003F0E0FE08B070BD3CF60100D404002078
:1037700000F701002DE9F043DFF804813E4F3F4E92
:103780008FB000243A68D8F80030DFF82091134356
:1037900032681343D9F8002013431DD0002C17DBE7
:1037A0003749384816F05DFA3349374816F059FA68
:1037B0003249364816F055FA4946354816F051FA5E
:1037C0003449354816F04DFA3449354816F049FA6F
:1037D00020460FB0BDE8F083324D08A800F0ACF8E9
:1037E000286883683821DB689847041E3DDB2E4A31
:1037F000009B1168526828680B440093019B0D21BF
:1038000013446A46019316F0E2F9041E2DDB286882
:1038100004AA102116F0DBF9041E26DB286802AA90
:103820000E2116F0D4F9041E1FDB286806AA1D21FC
:1038300016F0CDF9041E18DBDDE900010222FFF7C6
:103840004DFF0222C8F80000DDE90401FFF746FF42
:1038500004223860DDE90201FFF740FF069BC9F84A
:1038600000300C4B0B9A30601A6000214FF44D7001
:1038700015F068FD86E700BFF8130020FC13002058
:10388000001400201C030020580300209403002093
:10389000D0030020F013002034040020EC1300209B
:1038A00084040020E8130020F8F60100F41300203F
:1038B000024B1A68024B1A60704700BFE0040020F8
:1038C0000414002038B51BF0DAFBFFF7F7FE48BB05
:1038D000FFF750FF144803F0ABFB18BB1348144C20
:1038E000144D04F0D3F922682B689A420DDBFFF7E0
:1038F000D3FE03F025FE4FF0E170002115F022FD0C
:10390000BDE83840012001F00FB900214FF4C57027
:1039100015F018FD15F0CAFCFFF72CFF23680133E2
:103920002360E0E738BD00BF39370000D80200202F
:1039300004140020E004002070B5534D06460FCD5E
:1039400094B004AC0FC495E8030084E803004F482A
:1039500014F0F6FE0A9050B904AD0FCD34460FC4F2
:1039600095E8030084E80300304614B070BD484871
:1039700014F0E6FE0B900028EED0C46883684FF484
:10398000B0521B681D219847002875D1236823F089
:10399000005323600023CDE90C3304238DF831302C
:1039A00044F22803ADF8323006230A988DF83530FA
:1039B00083680CA91B6898470028CDDB0B98C36867
:1039C0001B689B0083684FF000514CBF1B69DB688C
:1039D00098470028C0DB0024142221460EA8139427
:1039E00018F04EF813AA109204220123119240F20B
:1039F0000E420A980F93ADF848208DF84A3083683C
:103A00000EA95B689847A042A6DB0A9A139B9268AE
:103A1000069312899DF830008DF84A40534303A95C
:103A20009DF84840039313F01FFA40BB039B2341CA
:103A300006930A9B9DF848209B6806981B89ADF861
:103A4000103001239340400005930790FCF7AAFC37
:103A5000104B0022FCF73AFE04ACCDE900010E4AFF
:103A6000062108A801F0B4FF0FCC35460FC594E835
:103A7000030085E8030077E7FFF66EAF8AE71630AC
:103A80003FF46AAFD5E700BF50F60100C909020054
:103A90005809020000408F40CF0902002DE9F04391
:103AA00087B0214C9DF83C909DF8408006460F461B
:103AB00010461946142550EA010317D1119C142D04
:103AC00018BF0135A4F1150408BF30232C4408BFEA
:103AD0008DF8143024EAE47414B1B9F1000F12D156
:103AE000142D15D9D4B907B0BDE8F0830E9A002380
:103AF000FCF724FFA25C0DF8052084460B466046C7
:103B00001946013DD7E739464046B047013CE3E757
:103B10001DF805003946B0470135E1E73946404612
:103B2000B047013CDEE700BFD50902000B68013356
:103B30000B60014B1B681847E40400202DE9F04F8F
:103B4000002687B005468B461C4602F1FF3A4FF02F
:103B5000FF3837464FF0000907E0B9F1000F0BD1ED
:103B6000252800F00A815946A8471AF8010F0028B5
:103B7000F3D107B0BDE8F08F7A280AD8622810D8B0
:103B8000302851D044D8252800F0F5802D2800F0A9
:103B9000FB8059462520A8479AF800005946A847B7
:103BA000D8E7A0F16303172BF3D801A252F823F052
:103BB0006F3D0000713C0000933B0000933B000010
:103BC000933B0000533C0000713C0000933B00001D
:103BD000933B0000533C0000933B0000933B0000EC
:103BE000933B0000EB3C0000933B0000933B000044
:103BF000373D0000933B0000713C0000933B000008
:103C0000933B0000193C0000933B0000533C000034
:103C1000392815D95828BCD19AF80030702B6ED1AC
:103C200054F8042B002375E0B8F1000F0BDA002FD5
:103C300000F0AC80A0F13008002F08BF022794E705
:103C4000B8F1000FF6DB0A2303FB0808A8F13008DF
:103C5000F2E7682803D1682E06D1482685E76C284C
:103C600002D16C2E00F09480002E92D106467CE7A3
:103C70007A2E06D1A14659F8042BD317752823D1E3
:103C80000FE06C2EF6D04C2E05D1073424F0070936
:103C9000F9E80223F2E77528226804F1040912D139
:103CA0000023F81E18BF0120012F0CBF3024202450
:103CB00001900A20CDE90248009059462846FFF7B6
:103CC000EDFE4C4646E7D317002A73F10001E8DA0F
:103CD00059462D20CDE90423A847DDE904235242AB
:103CE00063EB430308F1FF38DBE759463020A84770
:103CF00059467820A8474FF0080801278CE76C2E1A
:103D00008ED04C2E8CD1E31D23F007031C465B683C
:103D100054F8082BF81E18BF0120012F0CBF3021CA
:103D20002021CDE902181021019000912846594622
:103D3000FFF7B4FE0EE754F8043B99464A4619F8DB
:103D4000010B78B9032F25D1A2EB0309A8EB0909D0
:103D5000B9F1000F7FF7FEAE59462020A84709F1C0
:103D6000FF39F5E759460493A847049BE6E754F862
:103D7000040B594613E7594611E74E464F464FF09C
:103D8000FF384FF00109F0E60327EEE60127ECE6E5
:103D90004C26EAE68146E8E607B50B4600210246D6
:103DA0000191034801A9FFF7C9FE03B05DF804FBC8
:103DB0002D3B000030B585B0CDE90101044600255A
:103DC0000548039501A9FFF7B9FEDDE902309842E5
:103DD000B8BF255405B030BDD19D01002DE9F84F85
:103DE000B0F8189019F00808044693460DD0012940
:103DF0000CBF49F0100949F02009A0F818908BF386
:103E00001188BFF36F8FBDE8F88F09F00709022909
:103E100007D1204616F009F80028F0D00128238B9E
:103E20004ED16769218B002F15DA256821F0070133
:103E3000C4E9008841F0010121830026218B01F0B3
:103E4000070ACA4502D0A368002B5AD10DB9002E2B
:103E500071D0002356E001F007035A1F012A1ED833
:103E600021F00701062B256889B2C4E900880AD130
:103E70003DB1638B2A46126801339BB2002AFAD106
:103E8000638341F002012183204615F0CEFF0646F0
:103E90000028D3D0238B43F020032383CDE7042BCA
:103EA0000CD121F0070189B22183204615F0BDFF16
:103EB00005460028C1D041F0200121830025BCE740
:103EC000032809D1226923F00703166843F006038B
:103ED000238300252F46B1E7042806D1226923F069
:103EE0000703566843F00403F2E7052806D1226968
:103EF00023F00703966843F00503E9E700252E4603
:103F0000E8E7012341F0080121838BF31188BFF317
:103F10006F8FFBB985BB16B11F492046B0474FF0E4
:103F20002003EFF3118B83F31188BFF36F8F238B83
:103F300023F008032383238BDA0625D523F010030F
:103F400023830121B4F8189009F0070900297FF4B0
:103F50005EAF54E7A1680029DCD0D1F80090D1F819
:103F600004B03B4652462046D847B9F1000FD1D0A5
:103F70004946D9F80090F2E729463B46524620468A
:103F80002D6815F06EFFC5E713F020011EBF23F06A
:103F9000200323830221D5E78F9E01002DE9F04FF6
:103FA000A1B01E460023039089460293134613F8DE
:103FB000010B069358B1252800F081804946039BE8
:103FC0009847013040F04A844FF0FF330293029843
:103FD00021B0BDE8F08F2B2D65D05CD8202D65D0A9
:103FE000232D66D0002DF2D0CDF81880DDF8188092
:103FF000A44818F8015B294617F0D7FC0028EAD13D
:104000002A2D63D156F8043B0793002BBFBF5B42B8
:10401000079301230D93069B98F8005003F10208C3
:104020002E2D78D198F800302A2B71D156F8044BF8
:1040300008F1010818F8015B934829462F4617F04C
:10404000B4FC00286AD04346682F13F8015B06933E
:1040500007D1682D05D108F1020398F801500693A5
:104060004827782D08D8572D5CD8252D00F0F283ED
:1040700000F2A280002DAAD0039B49462520984734
:104080000130A1D0039B49462846984701309BD078
:10409000029B0233E4E32D2D0ED0302D089B08BF88
:1040A00001230893A0E7012309939DE701230C93C3
:1040B0009AE74FF0010A97E701230D9394E7002355
:1040C00008930C9309930D939A468FE7A5F130035B
:1040D000092B0790A4D80A22DDF8188018F8015B94
:1040E000A5F13003092B9BD8079B02FB0355A5F1D3
:1040F0003003CDE90683EFE701FB0434303C904602
:10410000424612F8013BA3F130000928F4D991E7A7
:1041100000240A21F4E74FF0FF348DE7CDF8188032
:1041200007469EE7A5F15803202BA5D801A252F817
:1041300023F000BFB947000079400000794000003B
:10414000794000007940000079400000794000008B
:10415000794000007940000079400000794000007B
:104160008D42000063430000C5410000C5410000CE
:10417000C541000079400000634300007940000021
:104180007940000079400000794000004547000078
:10419000B94700006F4700007940000079400000F7
:1041A0009147000079400000B947000079400000C5
:1041B00079400000B9470000A5F14503DBB2022BAE
:1041C0003FF65AAF073626F007031946F1E80223F7
:1041D000D80240EA5250D60220F0004004960590E2
:1041E000DDE90467002A0191C3F30A5173F100036A
:1041F000CDE9146780F2E5802D238DF864300DF150
:10420000650740F2FF73994240F0F680DDE9041241
:104210000A43A5F1410507F1030340F0E280192D9F
:1042200000F2D98049223A704E227A704622002448
:1042300019AEBA70FC709B1BA246A346099A002ACD
:1042400040F07D820C9A002A40F079829DF86480CB
:10425000A8F12D02D2F1000848EB02080BEB0A0688
:1042600033441E1920AB434413F81C3C303B092B4C
:1042700000F2FE82089B002B00F0FD82079B19AF25
:104280009B1B14E0E6090200EC09020032464FF0E5
:10429000000852F8043B01928DF864300126444630
:1042A00019AF04EB080300249B1BA246A34623EA94
:1042B000E3739A190892079A9919551A0D9A12B927
:1042C000002D00F3ED8207EB0802BA4240F0EA82CB
:1042D000013B80F0F582A6EB0806BBF1000F10D081
:1042E000387807EB0608A0F13003092BA8EB070686
:1042F00040F2F182D846B8F1010880F0F582A6EBD1
:104300000B06BAF1000F16D007EB060817F801BB31
:10431000039B49465846984701303FF455AEBBF1E0
:104320002E0FA8EB0706F1D1D046B8F1000F00F32D
:10433000E482A6EB0A0694B1387807EB0608A0F1F0
:104340003003092BA8EB070640F2E2822E2800F08A
:10435000DF82A046B8F1000F00F3E382361B3E4433
:10436000F2E23568331D002D01931CDA2D238DF800
:10437000643069420DF1650630460A2216F05AF89B
:10438000099B064419A8361A002B40F06C820C9B3E
:10439000002B40F068824FEAD578002C80DA0024A8
:1043A000A246A34666E7099B23B12B238DF8643010
:1043B0002946DFE70C9B0BB12023F7E7294619AE0E
:1043C000DAE7099B0BB12B2317E70C9B0BB12023DA
:1043D00013E719AF15E769223A706E227A706622E8
:1043E00025E7192D99BF4E2241216E22612194BFEC
:1043F0003A703A7079701AE7049B05980B430E9354
:10440000CB1703430F93DDE90E23462D08BF662526
:10441000134300F00781002900F09F80159B43F0B3
:104420000043A1F2FE381593002618F1020FC0F2E6
:10443000A880B8F1000F00F3D48014A808F1010897
:1044400016F01CF8B8F1040FF7D1002C05F0DF03CB
:10445000B8BF0624472B40F0EE80F11C02DBB442CB
:1044600080F2E380023DEDB2002C00F0EA80013CD6
:10447000BAF1000F40F0E580002CD4BF4FF00008E7
:104480004FF00108662D40F0DE8014EB060B4FF074
:10449000660500F1DB80BBF1100FA8BF4FF0100BD9
:1044A0001023139300224FF00063CDE91623BBF1D4
:1044B000010B80F0CE80149B169A17999B18159AC1
:1044C00041EB0202CDE9143202F070431093002355
:1044D0001193DDE91023134306D014A815F0E0FF73
:1044E00014A815F0CBFF0136662D40F0CF80002ECA
:1044F00040F3B680139B002B07DD13A914A815F019
:10450000F8FF013E07F8010BF4D1B3463B46002605
:10451000BAF1000F01D1002C15DD2E2203F8012B7A
:10452000002E00F0AE80002C40F3AD80C6F1000AF2
:10453000A245A8BFA246A4EB0A04002C03DD139AEF
:10454000002A00F39480B8F1000F40F0B4800022FC
:1045500019AE1A709B1B71E60139049BDB1804939A
:10456000059B5B410593DDE90423002A73F10003F9
:10457000F2DADDE90423CDE914234FE714A815F09E
:104580007DFFDDE9142C0023CDF828C00B93DDE975
:104590000A01002908BFB0F1333F08F10108EDD24C
:1045A0000520A2FB002300FB0C33CDE91423013EC0
:1045B0004FF0000E00214FF0000C6FF0004B8C45C7
:1045C00008BF9B4506D2BEF1000F3FF42EAFCDE9E8
:1045D00014232AE792185B4108F1FF384FF0010ECF
:1045E000E8E714A815F05CFFDDE9141008F1FF38C6
:1045F00001364FF0000E00234FF0000C6FF0004B1F
:104600009C4508BF834506D2BEF1000F3FF411AFB1
:10461000CDE914100DE74918404108F1FF384FF07B
:10462000010EE8E70026B04607E7A41BBAF1000F29
:1046300004D1662520E74FF0000823E74FF000087B
:1046400023E74FF0000804F1010B24E74FF0000BC3
:1046500026E716A815F024FF16A815F00FFF26E789
:104660003B46302203F8012B4FF0000B50E713A913
:1046700014A80A9315F03DFF0A9B013C03F8010BB7
:104680005BE7B24659E74FF0000A5CE713A914A8AC
:1046900015F02FFF3028387018BF06F1FF36BAF139
:1046A000000F37D1002C35DC7B1CB8F1000F43D054
:1046B0004FF0000BDA46194613F8012D302AFAD0D4
:1046C0002E2A18BF0B46002405F0DF02452A7FF48E
:1046D0003EAF002E1946BABF76422D222B22632E02
:1046E00001F8025B5A7008DD642096FBF0F202F1DB
:1046F0003005D91C9D7000FB12660A200B4696FB04
:10470000F0F200FB126602F13005303603F8025B6E
:104710004E701CE72E22BB1C7A70002CC5DD139A4C
:10472000002AC2DD13A914A80A9315F0E2FE0A9B21
:10473000013C03F8010BF0E7C346C246C4E74FF063
:1047400001088BE53246682F52F8043B019206D0EF
:104750006C2F09D0482F07D1029A1A7001E0029AF3
:104760001A80019E069A21E4029A1A60F9E747F638
:104770003003ADF864303346102253F8041B019324
:104780000DF1660015F056FE4FF00208861C04E697
:104790003346002C53F8047B0193B8BF6FF00044FC
:1047A0000026B44203D126460024A04679E5BB5D2D
:1047B000002B5BD00136F4E7331D6F2D3168019378
:1047C00019D1BAF1000F08D030238DF8643079B9CF
:1047D0008DF8651088460126DFE519AD28460822C8
:1047E00015F028FE19AEAD1B2E184FF00008D4E5C9
:1047F0000DF16505F2E7752D05D10A2219A815F00E
:1048000019FE0646F1E7BAF1000F11D047F6300362
:10481000ADF864300DF166071022384615F00AFE37
:10482000582D07D019AEBF1B3E184FEA4A08B4E511
:1048300019AFF1E719AA12F8013BA3F16101192997
:1048400003D8203B02F8013CF5E712F8013C002BAD
:10485000F1D1E7E749462846FFF7B1BB029B013398
:10486000CDE901637DE74FF0010896E51C469CE722
:1048700019AF00231DE5089B19AF1AE509934946B6
:10488000039B0792202098470130079A099B3FF429
:104890009BAB013AF2D2029929440291154612E5E6
:1048A0002A46F6E7099317F8010B039B079249463E
:1048B00098470130079A099B7FF407ADFFF784BB47
:1048C00007934946039B302098470130079B7FF4AC
:1048D000FFACFFF779BB039B4946984701303FF493
:1048E00073AB17F8010FFEE4039B4946302098474D
:1048F00001307FF400ADFFF767BB039B49463020D2
:104900009847013008F1FF387FF40FADFFF75CBB2B
:10491000039B4946984701303FF456AB17F8010F07
:104920000DE5039B494630209847013008F1FF38D8
:104930007FF410ADFFF748BB17F8010B039B494606
:10494000984701303FF440ABF31B002BF4DC029B93
:10495000089A002D134402937FF703AF2C4606E01C
:10496000039B49462020984701303FF42DAB013C82
:10497000F6D2029B2B440293F3E600BF1FB5072437
:104980000294044C0194BDF81840009418F0EAFE1B
:1049900004B010BDE7090020104B2DE9F0411C6860
:1049A00005460E461746ACB14FF0FF324FF0FF33CD
:1049B0000B4814F07DF863683246D3F80880294626
:1049C0003B462046C0470446054814F0E9F8204617
:1049D000BDE8F0816FF00104F9E700BF101400207A
:1049E000C80A002030B585B000230546CDE9023362
:1049F00001904FF0FF330C484FF0FF3214F058F89D
:104A00000A4B1C6834B1636820461B6801A99847AB
:104A10002468F7E7284600F03BF80446024814F003
:104A2000BFF8204605B030BDC80A00200814002099
:104A30001FB5CDE9010103924FF0FF330A484FF053
:104A4000FF3214F035F8094B1C6834B16368204616
:104A50001B6801A998472468F7E7034814F0A0F8F9
:104A6000002004B010BD00BFC80A002008140020B8
:104A7000024B0022C3E90022704700BF0814002047
:104A8000024B0022C3E90022FFF7F2BF14140020FA
:104A9000F8B51A4C1A4F06460025BC4206D3194BEE
:104AA0001C680CB1143C9CB92846F8BD1EB9E368DB
:104AB0004BB91434F1E720680022314615F052FD5D
:104AC0000028F4D1F5E79847002D08BF0546F0E728
:104AD00036B9E36863B914F1140FE5D06469E0E70F
:104AE00020680022314615F03DFD0028F1D1F2E7A3
:104AF0009847002D08BF0546EDE700BFC8F5010047
:104B000018F601001414002010B5064C23783BB9A8
:104B1000FFF7B6FF15F05FFD08B90123237010BD44
:104B20000020FCE72629002008B504464FF02002AB
:104B3000EFF3118382F31188BFF36F8F15F0E6FD59
:104B4000204600F075FF034815F055F900F010FD00
:104B5000FCE700BF120A02000E4A70B5841AA310C7
:104B60000D4C5C430546E4B20C2000FB04200E46CD
:104B70004021084415F03AFD011E05DB074B03EB0D
:104B8000C40463689847002128463346BDE8704056
:104B9000184700BF2C140020B76DDBB6B8F7010032
:104BA0002DE9F041104E841BA310104C5C43E4B27D
:104BB0000C256543804605F140000F4630444021F6
:104BC00015F02DFD011E09DB094A7319C3E90E27F3
:104BD000084B53F83430BDE8F041184740463B4697
:104BE000BDE8F041184700BF2C140020B76DDBB6BC
:104BF00081A60100B8F70100002270B5012104462A
:104C0000104600F055FC002000F020FC0F4813F087
:104C10006DFA0F4B984215D119F03FFEE6680D4929
:104C2000304615F051F900280BDB01253564E468A6
:104C3000084904F11C0015F047F9002801DBE56480
:104C4000002070BD6FF00400FBE700BF8D4C00003A
:104C50000000AD0BC8F7010001460C2309484B4387
:104C600070B5C418D4E90E5600224033A26318442C
:104C700015F0F3FC2DB132462B460348BDE87040D9
:104C8000184770BD2C140020F009002010B1012835
:104C900004D07047034B1B6C5B0701D1FFF7DCBFEF
:104CA000704700BF2C14002008B54FF02003EFF32D
:104CB000118183F31188BFF36F8F124A136843F099
:104CC000020013F0010310600CD04FF08042D2F8C4
:104CD0000C34D2F80C2413F0010303D00A4815F069
:104CE000BCFC012381F31188BFF36F8F23B1BDE8B2
:104CF00008400020FFF7B0BFBDE80840012013F0D6
:104D000005BA00BF7C1400206C140020094BBFF3CF
:104D10005B8F53E8002F22F0020143E800100028C7
:104D2000F7D1BFF35B8FD30702D4012013F020BA71
:104D3000704700BF7C14002010B58AB00023012208
:104D4000CDE90632019308AA0A4BCDE9082204AC4A
:104D500001AACDE90444CDE9023415F0B7FC0028DE
:104D600005DB4FF480420023204614F037FB0AB0E5
:104D700010BD00BF93A60100024AC3B21C2003FB72
:104D8000002070472C140020094BBFF35B8F53E8C1
:104D9000002F42F0010143E800100028F7D1BFF3D3
:104DA0005B8F930702D4012013F0B0B9704700BFA6
:104DB0007C140020094BBFF35B8F53E8002F22F0D7
:104DC000010143E800100028F7D1BFF35B8F930780
:104DD00002D4012013F0CCB9704700BF7C1400202E
:104DE0002DE9F8433A49BFF35B8F0646012251E8AB
:104DF000003F41E800200028F9D1BFF35B8F33B9B1
:104E0000344935484B60CB608A6015F070F8731EEA
:104E1000012B32D8012E07D14FF08043D3F81C3438
:104E200003F00303012B28D01AF05AF8044618B9EE
:104E30002A4B1B78002B44D14FF02003EFF3118550
:104E400083F31188BFF36F8F0124254FDFF894801F
:104E5000DFF894904FF08042D2F81834D2F818243A
:104E6000D2030CD503F00303012B01D0012E06D190
:104E70000CB385F31188BFF36F8FBDE8F883ACB135
:104E8000284600F083FB4FF08042D2F81835002B03
:104E9000E0D139680029DDD03B603B680123C2F8CE
:104EA0001835C8F88031C9F80030D3E70021212037
:104EB00014F048FAE7E74FF080430222C3F80423D6
:104EC000DBE74FF080430222C3F808230546BCE726
:104ED000801400201C14002048140020D629002033
:104EE0000401004000E100E008000040821C084B83
:104EF00022F07F42C3F84025D3F80425904200D128
:104F00007047D3F80405821C22F07F42F2E700BF0D
:104F100000100140074B00221A601B68064A074B2D
:104F2000D3F840051368C01A20F07F400344136093
:104F300014F09EBC40110140841400200010014078
:104F400038B5104D104B0024C5F808451C601B688F
:104F50000E4B4FF40032C3F880214FF48033C5F874
:104F6000043322460121112000F0A2FA112000F0A2
:104F70006DFA074A0123136002202B60FFF730FF10
:104F8000204638BD001001404011014000E100E022
:104F900008100140F8B52B4B2B4C1968D4F80425A8
:104FA0002A4D521AB0F1FF3F08BF284622F07F4336
:104FB000120236D4013820EAE070A842A8BF284681
:104FC00001331844A84294BF0D184D194FF4803195
:104FD000C4F80813D4F80425D4F840351C4E002733
:104FE0009B1A376023F07F433068012B22F07F400B
:104FF000C4F84005C4F8441304D10F2019F076FF1B
:1050000037603368134B4FF40032C3F88021D4F873
:1050100004052B1A23F07F43012B04D1FFF766FF11
:105020000BE00020CCE725F07F43C4F84035D4F8EE
:1050300004052D1A023D2B02F0D44FF48033C4F83E
:105040000433F8BD8414002000100140FFFF7F00EE
:105050004011014000E100E04FF02002EFF3118326
:1050600082F31188BFF36F8F064AD2F80405064A0F
:105070001268801A20F07F4083F31188BFF36F8F8E
:10508000704700BF0010014084140020014B1868D5
:10509000704700BF00050020F0B5082289B00C461B
:1050A000064615F0F6FCCB6A03930B6B04934B6B2F
:1050B00005938B6B0693CB6B0793002708236A46F7
:1050C00069466846CDE90177009715F0E4FB0823AF
:1050D00005466A463146304615F0DDFB236B0393E7
:1050E000636B0493A36B0593E36B0544CDE906372B
:1050F0006A4608236946684615F0CDFB31460544EB
:1051000008236A46304615F0C6FB236A0093636A9B
:105110000193A36A0293A36B0693E36B0793054481
:1051200008236A463046CDE90477039715F0B3FBB0
:10513000636A0093A36AA26B0193E36A02930492E9
:10514000636BE26B0393CDE90523236A0793054460
:1051500008236A46304615F09EFBE36A0093236BF2
:105160000193636B0293236A0693A36A0793054432
:1051700008236A463046CDE90477039715F0BFFC53
:10518000236B0093636B0193A36B0293E36B039315
:10519000636A0693E36A07932D1A08236A4630462A
:1051A000CDE9047715F0ABFC636B0093A36B01931F
:1051B000E36B0293236A0393636A0493A36ACDE9C2
:1051C0000537236B07932D1A08236A46304615F0DE
:1051D00096FCA36B0093E36BCDE90137636A0393FD
:1051E000A36A0493E36ACDE90537636B07932D1A2D
:1051F00008236A46304615F082FC2D1A10D40D4C57
:1052000035B908223146204615F04FFC01280FD051
:10521000082322463146304615F071FC2D1AEFE77F
:10522000044A08233146304615F035FB2D18F8D4D2
:1052300009B0F0BDD8F70100F0B5264E07460C4680
:105240000FCE8DB001AD0FC50FCE0FC596E807008C
:1052500085E807003846002F38D0002C38D0381F9A
:105260002146024610344B780D781B0443EA05634F
:10527000CD782B438D78043143EA05238C4242F8E4
:10528000043FF0D1144C04218A07036916D1C3F3FB
:105290000742A55C1A0EA25C42EA0562C3F3072529
:1052A000DBB2655DE35C42EA054242EA03220CADF3
:1052B00021F003032B4453F82C3C534050F8042FA7
:1052C000013153402C290361DED101200DB0F0BD26
:1052D0002046FBE768F601004B0A02002DE9F04387
:1052E000154689B00646002858D0002959D0002A12
:1052F00059D010230A466846194615F008FA29467F
:1053000068462A4C16F00DF905F11007A146A035A4
:10531000E8466A4610231178013B615C02F8011BE4
:10532000F9D1684616F042F9694604A816F077F9F3
:1053300001A905A816F073F902A906A816F06FF9DD
:1053400003A907A816F06BF9102319460DEB030209
:10535000684615F0DCF939466846103716F0E1F872
:10536000AF42D5D1102498F80030013C19F8033031
:1053700008F8013BF7D1684616F018F92946684647
:1053800016F0CFF8102319466A46304615F0BFF9DB
:1053900068461022214615F0C7F9012009B0BDE882
:1053A000F0830846FAE71046F8E700BF4B0A020010
:1053B000094A0A4993680968D967094998674B6897
:1053C00043F080534B60002383F31188BFF36F8F4A
:1053D0009368D86F704700BFC028002054090200AE
:1053E00000ED00E00F498A684FF038001044EFF3F9
:1053F000098C80E8F01F202080F31188BFF36F8FA5
:10540000094F4FF000668A6A8A603E60906F002301
:10541000936780F3118802F1380090E8F01F8CF355
:1054200009887047C028002004ED00E01EF0040F3A
:105430000CBFEFF30880EFF30980816911F8021CBB
:105440000229FFD001B516F02FFA01BD43B2002B9F
:1054500008DB012200F01F0002FA00F05B09024A9B
:1054600042F82300704700BF00E100E043B2002B88
:105470000DDB01225B0900F01F0002FA00F020336F
:10548000034A42F82300BFF34F8FBFF36F8F70477B
:1054900000E100E0054B420900F01F0053F8222014
:1054A000012303FA00F01040704700BF00E100E064
:1054B00043B2002BA8BF03F1604301F10101B8BF63
:1054C000064B4FEA4111ACBF03F5614300F00F00FA
:1054D000C9B2B4BF195483F80013704714ED00E04B
:1054E00008B572B6044B586A18B100225A6219F016
:1054F000AEFA62B608BD00BFC028002042F8203CCA
:10550000009B42F81C3C0A49019B42F8183C029B54
:1055100042F8143C21F001014FF0807342F8043C42
:1055200042F8081C0023203A82658367704700BF59
:10553000819F010008B506460D46144600F09CF90F
:10554000074B9E60204685F30988002163B681F3EE
:105550001188BFF36F8F0022002314F011FD00BFEC
:10556000C0280020014910220A60704710ED00E0B9
:1055700072B6404080F31188BFF36F8FBFF34F8F37
:1055800030BF62B6BFF36F8F704700BF72B649403D
:1055900081F3118820BF80F3118862B6704700BF85
:1055A00030BFFFF7FDBF00BF0E4A08B50E4B22F01B
:1055B0007F029A60BFF34F8FBFF36F8FD3F88820BD
:1055C00022F47002C3F88820EFF3148323F004035D
:1055D00083F3148813F01EF913F026F900F01EF976
:1055E00013F054F90000000000ED00E001B572B6C0
:1055F0000B4A506A00281EBF0021516219F027FA99
:1056000062B6EFF30580A0F110004FEAC000054933
:10561000014409C99847BDE8014003490847000013
:10562000C02800200CF401000158000016F058FAC0
:10563000202080F3118808484FF40061401880F35F
:105640000988EFF314800221084380F31488BFF324
:105650006F8FFFF7A9FF000028420020EFF30880BA
:10566000EFF3098101B5724600F04EF801BD00BFAD
:105670000C4B9A6A9A6A9A6A920708D55A6B9A6A88
:10568000120604D518B19A6A22F080029A62054B7C
:105690009A6A9A6A9A6A9A6A002042F0FF029A62AB
:1056A0000870704700ED00E00D4B9A6A9A6A9A6A9A
:1056B000920508D59A6B9A6A120404D518B19A6AB1
:1056C00022F400429A62064B9A6A9A6AD20558BF3F
:1056D0009A6A9A6A002042F47F429A620870704780
:1056E00000ED00E0074B9A6A9A6A9A6A9A6A9A6A87
:1056F0009A6A9A6A6FEA02426FEA12429A6200203C
:10570000704700BF00ED00E070B5364B5B688AB0B3
:105710000E46C3F30803002585F31188BFF36F8F8E
:1057200002F07F41B1F17F4F11D102F00C01082945
:105730000DD0110701D4064601250022033B8DF848
:105740000720032B47D8DFE803F0043E423B2E46F8
:10575000F3E7244BDA6A92073DD4DC6A14F0804404
:1057600008D028331B78EBB10DF107010120FFF7BA
:105770007FFF04469DF8073093B92022314602A8E6
:1057800016F053F9099B45B3C3F3080222B96FEA37
:1057900053236FEA4323099302A9204616F082F8A7
:1057A0000AB070BD104B1B782BB10DF10701012021
:1057B000FFF77AFFDDE70D4B188884B2002CD9D0B3
:1057C000FFF790FFD5E70DF107010020CFE70DF1BE
:1057D00007010020ECE70024CCE723F4FF7323F05B
:1057E0000103D8E700ED00E029ED00E02AED00E03C
:1057F000024A536943F010035361704700ED00E023
:10580000044B9968986A884203D003494FF080524C
:105810000A607047C028002004ED00E0044800231F
:105820002021C2180133302B82F80013F9D17047C0
:1058300000E100E008B50E4B9B68834207D1EFF30F
:10584000058393B10B4A536843F08053536013F0C0
:10585000DFFB4FF02003EFF3118083F31188BFF3D8
:105860006F8FBDE8084019F060BA13F0B3FE00BFB7
:10587000C028002000ED00E01FB5084B0193084B45
:105880000293084B039301AB0093074A074B012196
:10589000684600F093F805B05DF804FB00000020B6
:1058A0000000000000000B060000002000000420A3
:1058B000DFF884C0F0B50646002710468F4200DBB3
:1058C000F0BD56F827E0DEF8044094B343B1651EFE
:1058D0002C4219D11F2C17D9DEF80020154213D104
:1058E000202CC2B2DEF80050DEF808000FD9B4F167
:1058F000004F0ED8013CB4FA84F4C4F11F046400D4
:10590000072A44EA000406D96FF01500D8E70824F6
:10591000F6E73E24F4E725F01F05154345F0100592
:1059200044F00104CCF80820501CCCF80C50CCF802
:1059300010400137C2E700BF90ED00E0034B0522A5
:105940005A60BFF34F8FBFF36F8F704790ED00E049
:10595000BFF35F8F014B00225A60704790ED00E06B
:1059600013490868082810B51ED8FFF7F1FF114C3D
:1059700049680022904201F10C0105D10E4B1870CC
:10598000FFF7DCFF002010BDA26051F80C3C23F0B3
:105990001F03134343F01003E36051F8043C43F04A
:1059A000010323610132E5E74FF0FF30EBE700BF71
:1059B00084F8010090ED00E02729002010B5034C89
:1059C00001232278FFF774FF207010BD27290020E3
:1059D0000CB41FB509B90DF10300CDE9020107AB05
:1059E000069A0648019302A9FEF7D8FA029B002204
:1059F0001A7005B05DF804EB02B07047C7BA010039
:105A00004FF02003EFF3118283F31188BFF36F8F00
:105A100006490123C1F840354FF08041C1F878357F
:105A200082F31188BFF36F8F0020704700E00140C0
:105A30004FF08043C0B2C3F81C05BFF34F8F054938
:105A4000054BCA6802F4E0621343CB60BFF34F8F8B
:105A500000BFFDE700ED00E00400FA0520B1034BB4
:105A6000800143F001031847704700BFF0F60100C2
:105A70002DE9F8435B4FDFF884813E464FF0FF325B
:105A80004FF0FF33404613F0A9FCBFF35B8F3C6837
:105A9000BFF35B8F14F0010455D0DFF85C91524CDA
:105AA000524D53484A46214614F049FE00283ED044
:105AB00020222946204615F0A8FF0028F1D04FF0FB
:105AC00000094FF0FF324FF0FF33012001F0D0FE0C
:105AD00000F1080502210446284618F05BFD3E232C
